:081800007A2204000000000040
:08184800601304000000000021
:08185000AE11040000000000CD
:08186000700F040000000000FD
:08187000CC120400000000008E
:1018A0002216040000000000AE1704000000000033
:0818E800881304000000000059
:101920001A0E040000000000D81E04000000000091
:101970000013040000000000301304000000000009
:081BF8003220EF0083E0200021
:101C0000008041001040BA000160EF0000000600B3
:101C10000A590000203D000020250000642000003B
:101C20002C200000582000003D200000256400000A
:101C30000A0000004200F8003600F8003200F80008
:101C4000801F7800200020000C000900B01F7800E1
:101C500010C0B30005EAB7008760A900A00120000A
:101C60000C0009004F1078004F0078003200F90096
:101C70003600F9004200F9000040060020C0B30021
:101C800005EAB70010C0B300C7E8B70010C0B30042
:101C900004EAB700C628A8005429EF005629EF002F
:101CA0005829EF005E29EF005A29EF005C29EF0068
:101CB0006029EF009029EF009229EF00BA28EF0089
:101CC000BC28EF00BE28EF00C028EF009429EF00E9
:101CD0009629EF009829EF009A29EF009C29EF0040
:101CE0009E29EF00A029EF00A229EF00A429EF0010
:101CF000A629EF00A829EF00AA29EF00AC29EF00E0
:101D000004272400744D8800B029EF00B229EF00A9
:101D1000B429EF00B629EF00B829EF00BA29EF0087
:101D2000BC29EF00BE29EF00C029EF00C229EF0057
:101D3000C429EF00C629EF00C829EF00CA29EF0027
:101D4000CC29EF00CE29EF00D029EF00D229EF00F7
:101D5000D429EF00D629EF00D829EF00042724006A
:101D6000D44E8800DC29EF00DE29EF00E029EF00E7
:101D7000E229EF00E429EF00E629EF00E829EF006F
:101D8000EA29EF00EC29EF00EE29EF00F029EF003F
:101D9000F229EF00F429EF00F629EF00F829EF000F
:101DA000FA29EF00FC29EF00FE29EF00002AEF00DE
:101DB000022AEF0000000600851F7800861F7800C9
:101DC000871F78000382680004F0A6000600370031
:101DD0004200A9004220A90001F0A6002600370019
:101DE0004200A80024003700010278008002780039
:101DF00003037800820378008180D2000180FD0017
:101E00008381D2000380FD0081C0510005003200B3
:101E100004F0A600180037001000200042E0B600D1
:101E20001500370084407800864178000170A100D9
:101E30000370A10081C051000500320004F0A6002B
:101E40000D0037001000200042E0B6000A00370005
:101E5000858053000500320004F0A600060037001C
:101E60001000200042E0B600030037004200A90045
:101E70000100370000003700CF0378004F037800DF
:101E8000CF02780000000600000178008101780090
:101E9000014078000080FD0000F0A0008180D200A9
:101EA0000180FD008180FB00E40820008140520099
:101EB000060032000000E000040032004200A900E9
:101EC0000080D3008100E900FAFF3A0003F0A60089
:101ED000020037000000EA000000370000000600A2
:101EE0004200F8003600F8003200F800801F780049
:101EF000200020000C000900B01F7800C748E20055
:101F000007003A00044AE20005003A003E0E0200D3
:101F10000000000020C0B30005EAB7009460A900EB
:101F2000344680004822DE006124E10037003A0098
:101F3000345080006120E10032003A00C648A90018
:101F400010C0B30098EAB7009A2AEF00843C24003E
:101F5000E454880000002800B1432400D2548000DB
:101F6000E3548000DC0E0200000000000400390091
:101F700004002800D4548800B4432400E4548800AA
:101F8000C45480006124E1000E003A00C648AF004E
:101F900003003700C442A900C482A8000200370031
:101FA000C482A900C442A8009A8ABF00E1548000FC
:101FB000440F02000000000080027800050C880039
:101FC0000D003700C648AF0003003700C402A90067
:101FD000C422A80002003700C422A900C402A8003D
:101FE0009A8ABF00E1548000440F02000000000004
:101FF00080027800350C880010C0B300C7E8B70035
:10200000020037008021EF00C768EF0024508000F5
:102010006124E10036003A00445080006120E10074
:1020200031003A00C668A900986AEF009A2AEF00CA
:10203000843C2400E454880000002800B1432400BC
:10204000D2548000E3548000DC0E02000000000047
:102050000400390004002800D4548800B44324004C
:10206000E4548800C45480006124E1000E003A006A
:10207000C668AF0003003700C442A900C482A800AC
:1020800002003700C482A900C442A8009A8ABF0097
:10209000E1548000440F020000000000800278003C
:1020A000050C88000D003700C668AF00030037003C
:1020B000C402A900C422A80002003700C422A9005B
:1020C000C402A8009A8ABF00E1548000440F0200B5
:1020D0000000000080027800350C880010C0B300BA
:1020E00004EAB700020037008621EF00046AEF001F
:1020F0008460A900A00120000C0009004F107800A6
:102100004F0078003200F9003600F9004200F90073
:1021100000400600851F7800861F7800E108200037
:102120000000E0001200320000F0A70004003700B9
:102130004200A9000080D2008100E900FAFF3700C8
:102140000180FD004200A9008180D30000F0A100C1
:102150000080FD00814068000040B20007003700A9
:10216000014078000170A0000140B2000300370078
:102170000000EB008000EB00000037004F03780008
:10218000CF02780000000600851F7800045280000E
:102190006124E10038003A00CA02F800480AF90058
:1021A0004401F8004E0AF90000002000420AB40081
:1021B0008002780074528000835280000300520035
:1021C0008A1002000000000004002000B41A780009
:1021D000B41A78004E0AF800500AF9002452800020
:1021E000100020000400DD00480AB60080027800DC
:1021F000245280000428DE004AAAB700345280002E
:10220000100020000400DD00480AB60080027800BB
:10221000345280000428DE004CAAB7004A8ABF006E
:102220004C0AE3000A00320040002000420AB400D9
:10223000800278001502780061005200800A780060
:102240005502780060005A008002980009003700AB
:1022500040002000420AB400800278001502780095
:1022600061024200840A78005502780060024A0048
:10227000840A780037003700CA02F800480AF900DB
:102280004C01F8004E0AF90000002000420AB40098
:102290008002780074528000835280000300520054
:1022A0008A1002000000000004002000B41A780028
:1022B000B41A78004E0AF800500AF900245280003F
:1022C000100020000400DD00480AB60080027800FB
:1022D000245280000428DE004AAAB700345280004D
:1022E000100020000400DD00480AB60080027800DB
:1022F000345280000428DE004CAAB7004A8ABF008E
:102300004C0AE3000A00320040002000420AB400F8
:10231000800278001502780061005200800A78007F
:102320005502780060005A008002980009003700CA
:1023300040002000420AB4008002780015027800B4
:1023400061024200840A78005502780060024A0067
:10235000840A7800CF027800000006004200F800EE
:102360003600F8003200F800801F780020002000BE
:102370000C000900B01F780010C0B30040EAB7009D
:102380004499200014528800440020002452880000
:102390005400200034528800C410020000000000E5
:1023A0008420A900A00120000C0009004F10780033
:1023B0004F0078003200F9003600F9004200F900C1
:1023C00000400600851F7800B45280006124E100BF
:1023D00038003A00CA02F8005E0AF9004001F8002D
:1023E000640AF90000002000580AB4008002780056
:1023F0002453800033538000030052008A100200EF
:102400000000000004002000B41A7800B41A78001C
:10241000640AF800660AF900D45280001000200017
:102420000400DD005E0AB60080027800D45280000D
:102430000428DE0060AAB700E452800010002000EB
:102440000400DD005E0AB60080027800E4528000DD
:102450000428DE0062AAB700608ABF00620AE300B7
:102460000A003A0040002000580AB40080027800B8
:102470001502780061005200800A78005502780049
:1024800060005A00800298000900370040002000D8
:10249000580AB400800278001502780061024200F8
:1024A000840A78005502780060024A00840A7800A5
:1024B00037003700CA02F8005E0AF9004801F80048
:1024C000640AF90000002000580AB4008002780075
:1024D0002453800033538000030052008A1002000E
:1024E0000000000004002000B41A7800B41A78003C
:1024F000640AF800660AF900D45280001000200037
:102500000400DD005E0AB60080027800D45280002C
:102510000428DE0060AAB700E4528000100020000A
:102520000400DD005E0AB60080027800E4528000FC
:102530000428DE0062AAB700608ABF00620AE300D6
:102540000A003A0040002000580AB40080027800D7
:102550001502780061005200800A78005502780068
:1025600060005A00800298000900370040002000F7
:10257000580AB40080027800150278006102420017
:10258000840A78005502780060024A00840A7800C4
:10259000CF027800000006004200F8003600F80084
:1025A0003200F800801F7800200020000C00090095
:1025B000B01F780010C0B30056EAB700449920005D
:1025C000C452880044002000D452880054002000E7
:1025D000E4528800E21102000000000084A0A9007B
:1025E000A00120000C0009004F1078004F00780077
:1025F0003200F9003600F9004200F9000040060000
:102600004200F8003600F8003200F800801F780021
:10261000200020000C000900B01F7800406AEF0085
:10262000C499200014528800442AEF0014002000AE
:1026300034528800C41002000000000088A0A900E5
:10264000A00120000C0009004F1078004F00780016
:102650003200F9003600F9004200F900004006009F
:102660004200F8003600F8003200F800801F7800C1
:10267000200020000C000900B01F7800566AEF000F
:10268000C4992000C45288005A2AEF001400200088
:10269000E4528800E21102000000000088C0A90096
:1026A000A00120000C0009004F1078004F007800B6
:1026B0003200F9003600F9004200F900004006003F
:1026C0004200F8003600F8003200F800801F780061
:1026D000200020000C000900B01F7800CA02F8009A
:1026E000100AF9008002EB00082AEF008400A9001C
:1026F000A00120000C0009004F1078004F00780066
:102700003200F9003600F9004200F90000400600EE
:102710004200F8003600F8003200F800801F780010
:10272000200020000C000900B01F7800CA02F80049
:102730000E0AF9008002EB00062AEF008680A9004D
:10274000A00120000C0009004F1078004F00780015
:102750003200F9003600F9004200F900004006009E
:10276000851F7800861F780020002000700AB400C2
:102770009002780000002000700AB4000002780087
:10278000140078000028E10004003A00A5538000FE
:1027900010C0B300804A78002300370020002000DA
:1027A000700AB40080027800950AE80080002000DA
:1027B000700AB4009002780040002000700AB40053
:1027C000100378004130DD00050340009453800081
:1027D0000403980040002000700AB40080027800D2
:1027E000950AE80040002000700AB40090027800CA
:1027F00000002000700AB400000278001400780085
:102800000028E10006003A0040002000700AB400F1
:1028100080027800804AEB0000C0B300904298002C
:10282000A5538000804AEB004F037800CF02780068
:1028300000000600851F780000002000A40AB400F4
:10284000800278003455800084029800CF0278001E
:1028500000000600851F78000608F800AA0AF900A3
:1028600020002000AA0AB40090027800445580009D
:102870000520E1000500320020002000AA0AB40073
:10288000901F7800AA0AF900F5FF37002000200009
:10289000AA0AB4008002780020002000A80AB40030
:1028A000900A7800A82AEF00CF0278000000060006
:1028B000851F7800861F78000608F800860AF90050
:1028C000860AE2003600320000002000860AB400CA
:1028D0009002780005F0A7002C00370000002000CF
:1028E000860AB400901F78008A0AF90020002000B0
:1028F000860AB400901F7800880AF90000002000C2
:10290000880AB4009002780005F0A7001A0037008A
:10291000868ABF008A0AB40000037800640343007B
:1029200006007800880AE30013003A000000200047
:10293000880AB400901F78008C0AF9006454800063
:1029400064024200040078008A2AB400880AF80071
:10295000A80AF9002A14020000000000860AF80004
:10296000A40AF9008A0AF800A60AF9001A1402005B
:10297000000000000400370020002000860AB40098
:10298000901F7800860AF90004003700200020001C
:10299000860AB400901F7800860AF900C8FF370045
:1029A0004F037800CF02780000000600851F7800F2
:1029B0007A0AE20002003A001B00370018003700D4
:1029C000D4538000640052007CAAB70000002000AD
:1029D0007C0AB4009002780005F0A6000E003700D3
:1029E000000020007C0AB400900278000400280057
:1029F000048052007EAAB7007C0AF800A40AF900FD
:102A00007E0AF800A60AF9001A140200000000006D
:102A10007A2AEF00020037007A2AEF00020037001E
:102A20005814020000000000CF02780000000600E9
:102A3000851F78009E0AF800A00AF9000000200017
:102A4000A00AB40080027800E45480008402980058
:102A500020002000A00AB40080027800804AEB0029
:102A600000C0B30090429800A00AF8000000F900EE
:102A7000CF02780000000600851F780020002000AB
:102A80008C0AB400900278000500E00007003A00CC
:102A9000200020008E0AB40080027800804AEB00FB
:102AA00000C0B300904298000600370020002000CC
:102AB0008E0AB40080027800200020008C0AB40046
:102AC000900A7800200020008C0AB4008002780070
:102AD0007454800084029800CF0278000000060041
:102AE000851F7800861F7800768ABF00610060002D
:102AF0000000E00001003200762AEC000608F80031
:102B0000780AF900780AE200410032000000200053
:102B1000780AB4009002780005F0A700370037006B
:102B200000002000780AB40010037800B45380003D
:102B30000620E10031003E0000002000780AB400C9
:102B4000901F78007C0AF900B453800064024200B0
:102B500004007800E45380000020E1001E003600ED
:102B6000E4538000B353800083025200E482520099
:102B7000C453800064024200040378000600780019
:102B8000760AB40000037800E5548800F654880003
:102B900018150200000000007AAAB700780AF800B1
:102BA0008C0AF9007A0AF8008E0AF9003C15020036
:102BB0000000000004002800B3538000848241001C
:102BC000780AF800A40AF900355588001A140200A2
:102BD000000000000800370004002800E3538000D4
:102BE00084824100780AF800A40AF900355588006B
:102BF0001A14020000000000050037002000200029
:102C0000780AB400901F7800780AF900BDFF3700F9
:102C1000780AE20003003A000020EF0006003700C7
:102C200005003700C45380006402420004007800AD
:102C300000A0B700000037004F037800CF027800F3
:102C4000000006004200F8003600F8003200F800EC
:102C5000801F7800200020000C000900B01F7800C1
:102C6000496AEF004C2AEF002202AE00FEFF370057
:102C70003011800048EAB7005C29EC000000EB004E
:102C8000C688AF000000E8000160EF000080B200DD
:102C9000030032001080B2001200320073003700CF
:102CA00044528000F4CFB2000B003A00128ABF00F9
:102CB0006209B40080027800488ABF008042980010
:102CC000945080006120E10001003A00C688A8000D
:102CD000122AEC0002003700122AEF00C688A90071
:102CE00063003700128ABF00140AE3004C003A0068
:102CF000128ABF006209B40080027800488ABF00CF
:102D000080429800400020006209B4000002780070
:102D1000144078000160EF004CAAB70024002000A6
:102D200074528800400020004C0AB40074528000A5
:102D30000020E10007003D004E8ABF006209B40098
:102D40000002780014407800496AB4004E2AEC0072
:102D5000F4FF370049CAEE000042780004407800D2
:102D600049EAB700128ABF006209B4000002780085
:102D700014407800494AE30003003200122AEF00B1
:102D8000C688A90025003700122AEC00128ABF006D
:102D90006209B40080027800804AEB00122AEF003A
:102DA000142AEF005A29EC0044962000845388002E
:102DB0006209F800720AF900A4A42000A453880054
:102DC000B013020000000000545280006120E100B6
:102DD00006003A006209F8007A0AF900D6140200E7
:102DE000000000009229ED006029EC00C688A900CF
:102DF00004012000B4538800701502000000000098
:102E000062A9B7006209E20003003A009560A900D8
:102E10009029EC00010037009229EC0012003700E5
:102E2000128ABF006209B40080027800488ABF009D
:102E300080429800945080006420E10009003A002C
:102E4000128ABF006209B4000002780014407800C2
:102E50000080FB000160EF009450800004004000FF
:102E600014AAB700122AEC00010037000000370056
:102E70008560A900A00120000C0009004F10780017
:102E80004F0078003200F9003600F9004200F900E6
:102E900000400600851F7800861F7800871F780095
:102EA00020002000600AB400900278000500E000D5
:102EB00004003A002553800020C0B300804A780007
:102EC0002200370020002000600AB4008002780051
:102ED000950AE9001553800080002000600AB400C4
:102EE0001003780060002000600AB40090037800AE
:102EF00007004300904A780060002000600AB40098
:102F000080027800950AE80060002000600AB400A2
:102F10009002780000002000600AB40000027800EF
:102F2000140078000028E10006003A00600020004C
:102F3000600AB40080027800804AEB0000C0B30051
:102F40009042980025538000804AEB00CF03780020
:102F50004F037800CF027800000006008580A900AA
:102F60004200F8003600F8003200F800801F7800B8
:102F7000200020000C000900B01F7800848C200085
:102F800004538800E4A5200014538800F4A5200011
:102F9000245388004A170200000000005F4AE20044
:102FA00006003A005ECABF002322AF00FEFF3700D2
:102FB00024E2B7002562EF00020037009580A900E7
:102FC000C628A800A00120000C0009004F107800BE
:102FD0004F0078003200F9003600F9004200F90095
:102FE00000400600851F7800C5002000030009008E
:102FF000B51F780000F0A6000C0037000000EA00C2
:103000000480A00004F0A60008003700801F7800AC
:10301000D00220002322AF00FEFF370024A2B70019
:103020004F0078000480A1000860ED008002EB00F2
:10303000800378008404780004F0A1000404E00018
:1030400006003A0009F0A700020037000500200042
:103050000F003700050020000D003700E642520047
:103060000A0039000003200009F0A6000002200039
:103070002322AF00FEFF370024A2B7008502E9003B
:10308000FBFF3B0055002000010037008402780060
:10309000640020000580A7000402E80005E0A0000D
:1030A00009F0A70005F0A000087122001100090036
:1030B0008883D8009E180200000000008103780079
:1030C000883E2000110009008883D8009E18020065
:1030D000000000008103780048062000110009006C
:1030E0008883D8009E180200000000008103780049
:1030F000A8002000110009008883D8009E18020053
:10310000000000000980A60005003700D002200062
:103110002322AF00FEFF370024A2B7000980A100E0
:103120000003200000C04000500188002322AF00AF
:10313000FEFF370024A2B70020003700060320005E
:103140000000E0000E003A0005E0A600160037007F
:103150000402E9000524E100020032004200AF0051
:10316000000006000000E00005003A0005E0A600AF
:103170000D00370005F0A600060220000A00370007
:1031800005E0A1000980A6000700370000057800CF
:10319000D00220002322AF00FEFF370024A2B70098
:1031A0000980A1000A007800004043002322AF00FC
:1031B000FEFF370024A2B700000006002501200012
:1031C00003000900CF127800CF027800000006004B
:1031D000851F7800861F7800000278008102780041
:1031E0000000EB008000EB0085017200110032004E
:1031F0000001EB00610B20000270A7000700370000
:103200004200A9000482D2008582D2000080D20050
:103210000281D2008100E900F7FF3A000180FD0041
:103220004200A9008180D30001F0A1000270A1003A
:10323000814069004F037800CF027800000006004B
:10324000851F7800C500200004000900B51F780024
:10325000000278008102780083037800020378007E
:103260004200A9004220A9008180D2000180FD0017
:10327000F10FB2000100E0004B0032004200A90053
:103280004220A9008381D2000380FD00F30FB20029
:103290000300E000440032000080FB0001C0410058
:1032A00004003100F007B1003F0032003E00390059
:1032B000020037001048B0003B00310007856A006B
:1032C0004200A9004220A900F50FB2000570A0003D
:1032D0004200A900F70FB2000770A0000621B80055
:1032E000062CB80083014C00890078004200AF0032
:1032F0008100E8004200A900043CB80083014C00B2
:1033000081804C00072CB80081004C000000E800D0
:103310000100E0004220AF00010037000300370049
:103320000300E0004220AF000500370001F0A700D5
:10333000030037008381D2008180D2000000E900C1
:10334000010178004200A9000370A60009003700BF
:1033500007F02F00878161000310B0006001490071
:103360000200E00003003A000300E00001003A0020
:103370000000E8000080FD004200A9004220A900F2
:103380008080D3000AF0A70001F0A00002F0A100A5
:103390000280FD00814069000380FD000341780048
:1033A0000200780003003700000020000100200028
:1033B000000037004501200004000900CF1278000A
:1033C000CF02780000000600851F7800C5002000AD
:1033D00004000900B51F78008004EB0083846800B6
:1033E00001037800800278000304780082037800EB
:1033F0008180D2000180FD008180FB000100E0009F
:103400004E0032008381D2000380FD008381FB00E7
:103410000300E000490032000000EB0003C0500050
:1034200003003900F047B0004400310003003700CA
:103430001048B1004100390040003200850078009A
:10344000060178000270A000F20FB200F80FB2007F
:103450000870A0009A0120008001EB000002EB0040
:103460008780500008015900020033000400310039
:1034700004003A008780400008014900010037003D
:103480000400A0000A05E900070032004200A9007C
:103490008180D2000281D2004200A9000482D200C1
:1034A0008381D200EEFF37000005EB000380A70008
:1034B00001003700060037004200A9008381D300D5
:1034C0000370A1000482D3000A85D20002003700F5
:1034D0000000E900190032000AF0A70005003900D9
:1034E0008180D2000281D2008780500008015900FB
:1034F000090039000402E80007003A008301E800EF
:1035000005003A000000E8000C003200020037001D
:103510000000E900090032000080FD008080D30037
:1035200001F0A00009F0A60001F0A1000370A100C5
:1035300081C069000400780003003700000020000B
:1035400001002000000037004501200004000900B0
:10355000CF127800CF02780000000600851F7800A7
:10356000C500200003000900B51F78008004EB00AF
:10357000080028004300AF0083016C000000E00059
:1035800003003A00FAFF27000A8560004220AE00DF
:10359000010578008A8569000103780083037800BB
:1035A000030678004220A9004200A9000683D20049
:1035B0000680FD00F60FB2000600E000A100320018
:1035C0004220A9004200A9008783D2000780FD00A5
:1035D000F70FB2000700E0009F0032004220A90070
:1035E0004200A9000638E1009C003200A30033002D
:1035F0000900A1000910A000068453000703780009
:10360000F10FB2000170A000F30FB2000370A00030
:10361000870220000838E100110033004220A90091
:103620004200A9008180D3000080D3000804E90093
:10363000FAFF3A000D003700870220000838E10049
:10364000090033004220A9004200A9008381D30071
:103650000281D3000804E900FAFF3A000F003700A6
:103660000200780083007800430037000BF0A600CA
:10367000110037000940A7008C0578000000EA001F
:103680000200320081C0EA00010037008100EA0038
:103690000940A7002B003700070037000BF0A600F9
:1036A000050037000201EA000200320083C1EA008F
:1036B000010037008301EA00F50FB2004220A900A3
:1036C0004200A9000200400083C048004200AF0051
:1036D0000930A0000900A700090037000910A70061
:1036E000010037000B0037000BF0A7001500370072
:1036F0000930A700290037000960A0001E0037002C
:103700000BF0A7000F0037000930A7002300370097
:10371000190037000920A1000BF0A70004003700B2
:103720008A0578000930A7001C00370036003700F2
:103730000940A00001C8B2000170A700CDFF37000A
:103740008A057800F10FB200810370000A00320090
:103750000170A700080037004220A9004200A9001C
:103760000080D2008180D2000603E9004220AF0031
:1037700031003700F6FF37000900A7008A057800FE
:103780000910A7008C0578000950A6001A00370020
:103790000AF0A7000080A0001B0037004200A8002C
:1037A00081C0D3000080D3004200AF000950A000C8
:1037B0000603E800200032000950A6000800370088
:1037C0000000E80006003A008140E80004003A00EA
:1037D00081C0D3000080D3000603E8001600320049
:1037E0000900A7008A0578000910A7008C05780059
:1037F0004220AF00100037000960A7008A0578005A
:103800000970A7008C0578000101700023003200C8
:103810000170A1000680FD004220A9004200A9001D
:103820000683D30081006B0001F0A0000BF0A6001E
:1038300001F0A10019003700000020000100200065
:10384000160037000AF0A70083016C000200780020
:10385000830078001100370010003700F30FB2002A
:103860000370A000F10FB2000170A0000BF0A700E0
:103870000370A1000920A00088FF3700070453004F
:10388000F10FB2000170A000F30FB2000370A000AE
:103890000910A1000900A00067FF370025012000E2
:1038A00003000900CF127800CF0278000000060064
:1038B000851F7800C500200003000900B51F7800AF
:1038C000C0012000500AB4008002780040002000AF
:1038D0004E0AB4000002780003002000B4197800FA
:1038E000B4197800E8180200000000000001780018
:1038F00081017800000020005132240020190200CC
:10390000000000000003BE00060078008700780079
:1039100002002000030C2400201902000000000017
:103920000003BE000600780087007800020028002F
:10393000D3792400E41902000000000004002000F4
:10394000B41A7800B41A780000012000500AB400BC
:1039500080027800C0012000500AB4000002780004
:1039600003002000B4197800B41978004300A800BF
:1039700000017800810178004A8ABF00615280000E
:10398000AE1A02000000000004002000B41A780003
:10399000B41A780000022000500AB40080027800B7
:1039A00000002000500AB400C4002000301A780043
:1039B000301A780040002000500AB400000278005D
:1039C00003002000B4197800B41978004300A9005E
:1039D00000017800810178000600780087007800F7
:1039E000AE1A0200000000000003BE0080002000AC
:1039F000500AB4000002780003002000B4197800D7
:103A0000B41978004300A900000178008101780012
:103A10000600780087007800AE1A0200000000005F
:103A20000003BE0000012000500AB400000278002C
:103A300003002000B4197800B41978000001780060
:103A400081017800060078008700780020190200C4
:103A5000000000000003BE0000002000500AB40077
:103A600004012000301A7800301A7800800020000D
:103A7000500AB4000002780003002000B419780056
:103A8000B41978000001780081017800000020005E
:103A90000100240020190200000000004300A900DA
:103AA0000001780081017800080078008900780022
:103AB000AE1A0200000000000004BE004001200019
:103AC000500AB4000002780003002000B419780006
:103AD000B4197800000178008101780008007800AE
:103AE0008900780020190200000000004300A800AF
:103AF00000017800810178000600780087007800D6
:103B0000AE1A0200000000000003BE00800020008A
:103B1000500AB40004012000301A7800301A7800EE
:103B200080022000500AB400000278000300200048
:103B3000B4197800B4197800000178008101780088
:103B400008007800890078002019020000000000B9
:103B50004300A90000017800810178000600780088
:103B600087007800AE1A0200000000000400200068
:103B7000B41A7800B41A7800C0002000500AB400CB
:103B80008002780040022000500AB400C4002000E7
:103B9000301A7800301A780000022000500AB40071
:103BA0000002780003002000B4197800B4197800EE
:103BB0004300A90000017800810178000600780028
:103BC00087007800AE1A0200000000000400200008
:103BD000B41A7800B41A780000012000500AB4002A
:103BE000A4002000301A7800301A78000500780010
:103BF0008600780001F0A1008002780001037800BF
:103C0000528ABF00A1528000050178008601780029
:103C1000DC0E0200000000000B003900C000200094
:103C2000500AB400A4002000301A7800301A78003E
:103C3000050078008600780001F0A10056AAB700C0
:103C4000C152880002003700562AEF00582AEF00C0
:103C5000C0002000500AB400A4002000301A7800F0
:103C6000301A7800000020000100200005017800D3
:103C700086017800DC0E020000000000020039001E
:103C8000C608A80001003700C608A90048CABF003E
:103C900098EAB700560AF8009A0AF900580AF8009C
:103CA0009C0AF90000002800B1432400D25480008F
:103CB000E3548000DC0E0200000000000400390024
:103CC00004002800D4548800B4432400E45488003D
:103CD000C45480006124E1000E003A00C608AF0021
:103CE00003003700C442A900C482A80002003700C4
:103CF000C482A900C442A8009A8ABF00E15480008F
:103D0000440F02000000000080027800050C8800CB
:103D10000D003700C608AF0003003700C402A90039
:103D2000C422A80002003700C422A900C402A800CF
:103D30009A8ABF00E1548000440F02000000000096
:103D400080027800350C880040022000500AB40040
:103D500080027800C0002000500AB400B01A780039
:103D6000B01A780080022000500AB4008002780067
:103D700040012000500AB400B01A7800B01A780050
:103D800040012000500AB4008002780000012000A9
:103D9000500AB400B01A7800B01A7800250120004B
:103DA00003000900CF127800CF027800000006005F
:103DB0004200F8003600F8003200F800801F78005A
:103DC000200020000C000900B01F7800F489BF001B
:103DD000B14F8000440F0200000000008002780014
:103DE000C889BF00514E8000440F0200000000004F
:103DF0000003780001002000010078000160EF005E
:103E0000FC0D0200000000008100E8002322AF004A
:103E1000FEFF370024A2B700400020000008E600A3
:103E2000F5FF37000500780004002000F2170200BB
:103E30000000000071002000010078000160EF0028
:103E4000FC0D0200000000008100E8002322AF000A
:103E5000FEFF370024A2B700D00020000008E600D3
:103E6000F5FF37000600780004002000F21702007A
:103E7000000000002322AF00FEFF3700A400200056
:103E800024118800486AEF00BE08F8004A0AF900C9
:103E9000C008F8004C0AF900C49920007452880048
:103EA000849D2000845288000A0AF800520AF90012
:103EB0000C0AF800540AF900581C02000000000027
:103EC00010C0B30048EAB700BA08F8004A0AF9007F
:103ED000BC08F8004C0AF90044992000745288008C
:103EE000C49A2000845288000A0AF800520AF90095
:103EF0000C0AF800540AF900581C020000000000E7
:103F0000E889BF00514F800001F0A10080027800D5
:103F10000103780005007800860078005250800088
:103F200063508000DC0E0200000000000F0039002A
:103F3000BC89BF00F14D800001F0A1008002780033
:103F40000103780005007800860078005250800058
:103F500063508000DC0E0200000000000300390006
:103F60009780A90020C0B30005EAB7008780A900A8
:103F7000A00120000C0009004F1078004F007800CD
:103F80003200F9003600F9004200F9000040060056
:103F900081E0A900040E20001402880081E0A8003E
:103FA00000000600851F78002CA3EF000516800096
:103FB00080FE2F00850260000516880045168000EF
:103FC00030FF2F0085026000451688008221EF0037
:103FD00064002000240C88008021EF008821EF007D
:103FE00064002000540C88008621EF0084E0A900C2
:103FF0000621EF001021EF00843E200064088800B5
:1040000004002800840888008460A9000021EF00D3
:104010000421EF000427200014088800040328006E
:10402000240888009460A9008760A9001421EF008B
:104030001E21EF0014A12700D408880004032800E3
:10404000F40888009760A9009760A8008780A900FD
:104050001821EF002021EF0044C32000E40888006D
:1040600004032800040988009780A9001400200098
:10407000140A88008420A9009420A80014002000BD
:10408000340A880084A0A90094A0A800140020008D
:10409000540A880088A0A90098A0A8001400200055
:1040A000740A880088C0A90098C0A8000A21EF00FF
:1040B0001221EF000EA1EF000400280094088800F0
:1040C000CF027800000006004200F80081E0A9005D
:1040D00042E0EF0081E0A80004012000B453880012
:1040E000701502000000000081E0A9004200F90004
:1040F00081E0A80062A9B7006209E2000600320070
:104100009229EC00030009002682BF008560A90007
:104110009560A800010037009029EC00000006001F
:10412000851F780000002000180AB4008002780083
:10413000E45080008402980020002000180AB40097
:1041400080027800804AEB0000C0B30090429800E3
:1041500040002000180AB40080027800804AEB007A
:1041600000C0B3009042980060002000180AB4001C
:1041700080027800804AEB0000C0B30090429800B3
:1041800080002000180AB40080027800D45080001B
:1041900084029800CF02780000000600851F780096
:1041A00000002000180AB40080027800E45080006B
:1041B0008402980020002000180AB40080027800D1
:1041C000804AEB0000C0B3009042980040002000FD
:1041D000180AB40080027800804AEB0000C0B300E7
:1041E0009042980060002000180AB4008002780015
:1041F000804AEB0000C0B30090429800800020008D
:10420000180AB40080027800D4508000840298001C
:10421000CF0278000000060044962000C4508800B9
:10422000E4962000D450880084002000E4508800E8
:104230009020020000000000848C2000C450880000
:10424000248D2000D450880004082000E450880009
:10425000CE200200000000000000060081E0A9005E
:104260004220EF0081E0A8000000060010C0B3006B
:10427000C7E8B70010C0B30004EAB700062AEF0091
:10428000CAC2AF00062AEC00082AEF00CAE2AF005B
:10429000082AEC009460A80000000600C228EF0085
:1042A000C428EF00184AE20002003A008021EF0023
:1042B00007003700C45080006224E10003003A0088
:1042C0008021EF008621EF00010037008621EF00FA
:1042D00000000600851F7800861F7800871F780081
:1042E00020002000180AB400900278000500E000C9
:1042F00004003A00E550800020C0B300804A7800F6
:104300002500370020002000180AB4008002780041
:10431000950AE900000020001A0AB4008002780023
:1043200080002000180AB40010037800600020000C
:10433000180AB40090037800C13BDD000700430079
:10434000900A780060002000180AB400800278000B
:10435000950AE80060002000180AB4009002780076
:1043600000002000180AB400000278001400780051
:104370000028E10006003A0060002000180AB4009E
:1043800080027800804AEB0000C0B30090429800A1
:10439000E5508000804AEB00CF0378004F0378009F
:1043A000CF02780000000600851F78002000200062
:1043B000180AB40080027800154078000160EF0010
:1043C0001080B200030032003080B200460032009C
:1043D0004600370030002000180AB4008002780040
:1043E000154078000160EF001080B2000500320037
:1043F0003080B200350032001080B200360032004A
:104400003800370050002000180AB400104078002F
:104410001BEAB7001A6AEF0060002000180AB40017
:1044200000027800144078000160EF001CAAB70079
:104430001A8ABF001C0AB7004200F80081E0A900F8
:1044400042E0EF0081E0A8008A10020000000000B6
:1044500081E0A9004200F90081E0A800BAA8B700F5
:10446000E145880070002000180AB4001040780070
:104470001BEAB7001A6AEF0080002000180AB40097
:1044800000027800144078000160EF001CAAB70019
:104490001A8ABF001C0AB7004200F80081E0A90098
:1044A00042E0EF0081E0A8008A1002000000000056
:1044B00081E0A9004200F90081E0A800BEA8B70091
:1044C00001468800056AEF000600370040C0B300CF
:1044D00005EAB7000300370030C0B30005EAB700B3
:1044E000000037000100370000003700CF027800DD
:1044F000000006000F782200F07F220020A0B70005
:1045000000000000404424002005880040442400AE
:1045100040058800404424008005880081E0A80010
:104520006004200042E7B7007005200042E7B700B2
:1045300042C7A900F063200080A6B70040502000C9
:104540008EA6B7001000200090A6B700C0F0230090
:10455000A4A6B70020312100C2A6B7000030200079
:10456000CCA6B7006004200042E7B7007005200029
:1045700042E7B70042C7A8004427EF000400280024
:104580000411880004402000141188002062A80053
:104590002402200044118800BA28EF00BC28EF0054
:1045A000BE28EF00C028EF00C228EF00C428EF00AB
:1045B000A0003700800203002CFFFF0080020700EC
:1045C0004400000080020700440000008002070051
:1045D0004400000080020800000000008002080083
:1045E00000000000800208000000000080020800B7
:1045F00000000000C0080800080000004BF03F0069
:104600005C0A5800F63B8F0000C03C008B28AC00D1
:104610003CBEF6003FD2D50044168C0015D7BF0033
:1046200069005A002E1B8700993F9A005FAD4B002E
:1046300091E40100C05D11002F92E40081FB3F0076
:1046400038DA9100809DC500E0BF6F0012C0B40051
:10465000C309AB003F6BC100034EC100B545BF00AD
:10466000F7400500FF005A00EF3FF300A3E2F70018
:10467000D7FF010040C0B400FF053C0058FC3F00DC
:104680003BD3C000B5BA8C00E23F3900D3C73D0030
:104690004179B2003F870D003C50D000AF623F002F
:1046A000304B8D00A282AA0004400900A0404A00BD
:1046B0000576030040EC9E003788A60044F03F00DA
:1046C0008F128D00299A5B00C73F0E00E0807C00AE
:1046D000A1D886003F294B00FB95C200371A3F0046
:1046E000C00608000A0000004BF03F005C0A5800BA
:1046F000F63B8F0000C03C008B28AC003CBEF600AF
:104700003FD2D50044168C0015D7BF0069005A006F
:104710002E1B8700993F9A005FAD4B0091E401008A
:10472000C05D11002F92E40081FB3F0038DA910058
:10473000809DC500E0BF6F0012C0B400C309AB008C
:104740003F6BC100034EC100B545BF00F7400500F7
:10475000FF005A00EF3FF300A3E2F700D7FF01008C
:1047600040C0B400FF053C0058FC3F003BD3C000F4
:10477000B5BA8C00E23F3900D3C73D004179B200A1
:104780003F870D003C50D000AF623F00304B8D00A2
:10479000A282AA0004400900A0404A000576030056
:1047A00040EC9E003788A60044F03F008F128D0039
:1047B000299A5B00C73F0E00E0807C00A1D88600EC
:1047C0003F294B00FB95C200371A3F00400D000007
:1047D00080010800C600C000CC08C80000800800A6
:1047E0000A060100000100000000A0004080040053
:1047F0000A12000000000000000000000201E800B2
:104800006110E10004003A009101BA003182BA005F
:1048100006C0BF00000006006210E10002003A007E
:1048200007C0BF000000060008C0BF000001EB0089
:104830000000060006002000000020009001880013
:10484000A02D2200800078000001EB00FE23020072
:10485000000000000BE0B700FE2302000000000093
:104860000AE0B7000500E0001900320005F0A600DC
:1048700007003700FE230200000000000DE0B70033
:10488000FE230200000000000CE0B70005F0A100CC
:1048900005E0A6000800370005E0A1008502E90058
:1048A000FE2302000000000080437800058009001C
:1048B000075B7800E5FF3700FE23020000000000E0
:1048C000005B78008502E900FBFF3A00DFFF37005C
:1048D00064AB20003440880064CC2100B4558800CB
:1048E000B82AEF00C81F0200000000008400A900E1
:1048F0009400A8008680A9009680A8003E0E0200C1
:1049000000000000D21F020000000000642002002E
:10491000000000000C210200000000002E21020017
:104920000000000005CABF000160EF000080B20077
:10493000070032001080B200070032002080B20071
:10494000080032007080B200090032000D0037000C
:104950009780A8002D00370020C0B30005EAB700FB
:104960002A0037003621020000000000270037002F
:1049700020C0B30018EAB7004E210200000000007A
:1049800022003700C81F02000000000044962000EB
:10499000C4508800E4972000D450880064A120000F
:1049A000E45088006A21020000000000164AE2007C
:1049B00013003A007E09F800180AF900D421020019
:1049C000000000004200F80081E0A90042E0EF0092
:1049D00081E0A8007E09F8007A0AF900D6140200E6
:1049E0000000000081E0A9004200F90081E0A80079
:1049F0009229ED002E210200000000000200370085
:104A00002E2102000000000000003700C5FF370023
:044A10000040FE0064
:020000040001F9
:0807F800C7F900FF7F3F00FF7D
:00000001FF
;PIC24FJ48GA002
;CRC=ACB5  CREATED="26-Nov-17 15:20"
