:08180000801604000000000046
:08184800A415040000000000DB
:08185000E81404000000000090
:08187000461504000000000011
:0818E800E215040000000000FD
:081928002E1304000000000072
:081BF8003220EF0083E0200021
:101C0000008041001040BA000160EF0000000600B3
:101C1000484500004C4C00004F320000000000001E
:101C20003220EF00C3E12000008041001040BA00E4
:101C30000160EF0000000600484500004C4C000029
:101C40004F000000851F7800861F7800E108200003
:101C50000600A10000F0A600030037000600A00067
:101C60000000EA00000037000000E000140032002D
:101C700000F0A700040037004200A9000080D20055
:101C80008100E900FAFF37000180FD004200A90051
:101C90008180D30000F0A1000080FD008140680039
:101CA0000040B2000600A70001F0A00007003700C6
:101CB000014078000170A0000140B200030037002D
:101CC0000000EB008000EB00000037004F037800BD
:101CD000CF02780000000600851F7800C5002000B4
:101CE00004000900B51F7800000278008102780026
:101CF00083037800020378004200A9004220A90073
:101D00008180D2000180FD00F10FB2000100E000EF
:101D10004B0032004200A9004220A9008381D2007A
:101D20000380FD00F30FB2000300E0004400320026
:101D30000080FB0001C0410004003100F007B10049
:101D40003F0032003E003900020037001048B0006A
:101D50003B00310007856A004200A9004220A9002B
:101D6000F50FB2000570A0004200A900F70FB20005
:101D70000770A0000621B800062CB80083014C00B3
:101D8000890078004200AF008100E8004200A9000D
:101D9000043CB80083014C0081804C00072CB80043
:101DA00081004C000000E8000100E0004220AF008C
:101DB00001003700030037000300E0004220AF00BD
:101DC0000500370001F0A700030037008381D2002F
:101DD0008180D2000000E900010178004200A900E2
:101DE0000370A6000900370007F02F00878161000B
:101DF0000310B000600149000200E00003003A0057
:101E00000300E00001003A000000E8000080FD004F
:101E10004200A9004220A9008080D3000AF0A70058
:101E200001F0A00002F0A1000280FD0081406900E5
:101E30000380FD00034178000200780003003700B2
:101E400000002000010020000000370045012000B4
:101E500004000900CF127800CF02780000000600CD
:101E6000851F7800C500200004000900B51F780018
:101E70008004EB008384680001037800800278000E
:101E800003047800820378008180D2000180FD0085
:101E90008180FB000100E0004E0032008381D2000F
:101EA0000380FD008381FB000300E0004900320055
:101EB0000000EB0003C0500003003900F047B00001
:101EC00044003100030037001048B10041003900E0
:101ED0004000320085007800060178000270A00002
:101EE000F20FB200F80FB2000870A0009A012000B3
:101EF0008001EB000002EB008780500008015900D0
:101F0000020033000400310004003A0087804000E2
:101F100008014900010037000400A0000A05E9009B
:101F2000070032004200A9008180D2000281D20065
:101F30004200A9000482D2008381D200EEFF370064
:101F40000005EB000380A700010037000600370002
:101F50004200A9008381D3000370A1000482D30052
:101F60000A85D200020037000000E90019003200A3
:101F70000AF0A700050039008180D2000281D2005A
:101F80008780500008015900090039000402E80068
:101F900007003A008301E80005003A000000E8006D
:101FA0000C003200020037000000E9000900320096
:101FB0000080FD008080D30001F0A00009F0A600A1
:101FC00001F0A1000370A10081C069000400780045
:101FD000030037000000200001002000000037004F
:101FE0004501200004000900CF127800CF027800DC
:101FF00000000600851F7800C500200003000900CE
:10200000B51F78008004EB00080028004300AF00F3
:1020100083016C000000E00003003A00FAFF270093
:102020000A8560004220AE00010578008A856900BB
:102030000103780083037800030678004220A9009A
:102040004200A9000683D2000680FD00F60FB20010
:102050000600E000A10032004220A9004200A900D1
:102060008783D2000780FD00F70FB2000700E00071
:102070009F0032004220A9004200A9000638E1007A
:102080009C003200A30033000900A1000910A00049
:102090000684530007037800F10FB2000170A0001E
:1020A000F30FB2000370A000870220000838E1009F
:1020B000110033004220A9004200A9008180D30012
:1020C0000080D3000804E900FAFF3A000D00370051
:1020D000870220000838E100090033004220A900EF
:1020E0004200A9008381D3000281D3000804E900E3
:1020F000FAFF3A000F0037000200780083007800F2
:10210000430037000BF0A600110037000940A7007C
:102110008C0578000000EA000200320081C0EA006D
:10212000010037008100EA000940A7002B003700BA
:10213000070037000BF0A600050037000201EA0097
:102140000200320083C1EA00010037008301EA0087
:10215000F50FB2004220A9004200A9000200400091
:1021600083C048004200AF000930A0000900A7006A
:10217000090037000910A700010037000B003700E5
:102180000BF0A700150037000930A7002900370021
:102190000960A0001E0037000BF0A7000F003700F9
:1021A0000930A70023003700190037000920A100DB
:1021B0000BF0A700040037008A0578000930A7005B
:1021C0001C003700360037000940A00001C8B200EB
:1021D0000170A700CDFF37008A057800F10FB2002B
:1021E000810370000A0032000170A7000800370068
:1021F0004220A9004200A9000080D2008180D200C4
:102200000603E9004220AF0031003700F6FF370037
:102210000900A7008A0578000910A7008C0578003E
:102220000950A6001A0037000AF0A7000080A0009D
:102230001B0037004200A80081C0D3000080D300FB
:102240004200AF000950A0000603E8002000320061
:102250000950A600080037000000E80006003A0018
:102260008140E80004003A0081C0D3000080D30020
:102270000603E800160032000900A7008A0578006E
:102280000910A7008C0578004220AF00100037002D
:102290000960A7008A0578000970A7008C057800FE
:1022A00001017000230032000170A1000680FD00D2
:1022B0004220A9004200A9000683D30081006B00E0
:1022C00001F0A0000BF0A60001F0A10019003700FA
:1022D0000000200001002000160037000AF0A700CF
:1022E00083016C0002007800830078001100370041
:1022F00010003700F30FB2000370A000F10FB2001E
:102300000170A0000BF0A7000370A1000920A0003D
:1023100088FF370007045300F10FB2000170A000DE
:10232000F30FB2000370A0000910A1000900A00083
:1023300067FF37002501200003000900CF12780055
:10234000CF02780000000600851F7800861F780005
:10235000871F78000382680004F0A600060037009B
:102360004200A9004220A90001F0A6002600370083
:102370004200A800240037000102780080027800A3
:1023800003037800820378008180D2000180FD0081
:102390008381D2000380FD0081C05100050032001E
:1023A00004F0A600180037001000200042E0B6003C
:1023B0001500370084407800864178000170A10044
:1023C0000370A10081C051000500320004F0A60096
:1023D0000D0037001000200042E0B6000A00370070
:1023E000858053000500320004F0A6000600370087
:1023F0001000200042E0B600030037004200A900B0
:102400000100370000003700CF0378004F03780049
:10241000CF027800000006000001780081017800FA
:10242000014078000080FD0000F0A0008180D20013
:102430000180FD008180FB00E40820008140520003
:10244000060032000000E000040032004200A90053
:102450000080D3008100E900FAFF3A0003F0A600F3
:10246000020037000000EA0000003700000006000C
:10247000851F7800C500200003000900B51F780003
:1024800000F0A6000C0037000000EA000480A00065
:1024900004F0A60008003700801F7800D00220005A
:1024A0002322AF00FEFF370024A2B7004F007800C0
:1024B0000480A1000860ED008002EB00800378003A
:1024C0008404780004F0A1000404E00006003A004F
:1024D00009F0A70002003700050020000F003700B8
:1024E000050020000D003700E64252000A003900C6
:1024F0000003200009F0A600000220002322AF0004
:10250000FEFF370024A2B7008502E900FBFF3B0075
:10251000550020000100370084027800640020008C
:102520000580A7000402E80005E0A00009F0A7006C
:1025300005F0A00008712200110009008883D8006E
:10254000E41202000000000081037800883E2000B1
:10255000110009008883D800E41202000000000086
:102560008103780048062000110009008883D80004
:10257000E41202000000000081037800A80020009F
:10258000110009008883D800E41202000000000056
:102590000980A60005003700D00220002322AF00EA
:1025A000FEFF370024A2B7000980A100000320002D
:1025B00000C04000500188002322AF00FEFF37001A
:1025C00024A2B70020003700060320000000E0002E
:1025D0000E003A0005E0A600160037000402E900EC
:1025E0000524E100020032004200AF0000000600B6
:1025F0000000E00005003A0005E0A6000D003700ED
:1026000005F0A600060220000A00370005E0A10040
:102610000980A6000700370000057800D0022000DE
:102620002322AF00FEFF370024A2B7000980A100DB
:102630000A007800004043002322AF00FEFF37006D
:1026400024A2B700000006002501200003000900B5
:10265000CF127800CF027800000006004200F80098
:102660003600F8003200F800801F780020002000BB
:102670000C000900B01F78003288BF00220E020053
:1026800000000000000178008101780000002000B7
:10269000513224006C0E020000000000800278001D
:1026A0000103780005007800860078000200200011
:1026B000032724006C0E0200000000008002780056
:1026C00001037800050078008600780002002800E9
:1026D000D3792400300F0200000000000CA8B700DE
:1026E000714088004300A8000888BF005140800066
:1026F0006240800073408000FA0F0200000000007A
:1027000010A8B700914088004300A9001488BF00BA
:10271000B14080008240800093408000FA0F0200A8
:102720000000000014A8B700B14088003888BF003E
:10273000D141800082408000934080006C0E0200F6
:102740000000000080027800010378003C88BF0090
:10275000F1418000A2408000B34080006C0E020076
:10276000000000004300A90000017800810178000A
:102770000500780086007800FA0F020000000000D3
:1027800080027800010378004300A8001088BF0091
:1027900091408000C2408000D3408000FA0F0200C8
:1027A0000000000000017800810178004088BF002F
:1027B000114280006C0E0200000000004300A900DE
:1027C000000178008101780005007800860078001B
:1027D000FA0F0200000000001CA8B700F1408800BA
:1027E0001008F8001808F9001208F8001A08F90093
:1027F0001088BF009140800001F0A10080027800A5
:10280000010378003488BF00B141800005017800E1
:1028100086017800A41102000000000006003900C3
:102820001C88BF00F140800001F0A10020A8B70083
:1028300011418800040037002028EF002228EF0013
:102840008021EF009780A9001088BF009140800090
:102850000C120200000000008002780005007800E1
:102860000400200038120200000000002322AF0004
:10287000FEFF3700A4002000241188000000200083
:1028800001002000E2408000F3408000A41102001B
:102890000000000023003900CC02A8000000250041
:1028A000318424000241800013418000A411020001
:1028B00000000000040039000400250004418800E5
:1028C00034842400144188002088BF001141800016
:1028D00002002000834424006C0E0200000000006F
:1028E00080027800010378000500780086007800F7
:1028F0000200250033842400300F02000000000095
:1029000020A8B700114188002088BF001141800035
:102910000C1202000000000080027800050C880004
:1029200022003700CC22A80000002500317C2400C2
:102930000241800013418000A41102000000000049
:10294000040039000400250004418800347C240080
:10295000144188002088BF0011418000020020003F
:10296000834424006C0E0200000000008002780006
:102970000103780005007800860078000200250039
:10298000337C2400300F02000000000020A8B700B4
:10299000114188002088BF00114180000C12020004
:1029A0000000000080027800050C88008780A900E4
:1029B000A00120000C0009004F1078004F007800A3
:1029C0003200F9003600F9004200F900004006002C
:1029D0004200F8003600F8003200F800801F78004E
:1029E000200020000C000900B01F7800CA02F80087
:1029F0002408F9004001F8002C08F9006441800027
:102A0000734180000300520030A8B7002C08F80082
:102A10002E08F9002488BF00F00260004428DE0080
:102A200026A8B700254180000502B2004528DE0037
:102A300028A8B7002688BF002808E30005003A0050
:102A40002A28EF00944180006100520032A8B700AC
:102A50000500370014002000544188009441800094
:102A600061024200944188008420A900A001200056
:102A70000C0009004F1078004F0078003200F90078
:102A80003600F9004200F900004006004200F8005C
:102A90003600F8003200F800801F78002000200087
:102AA0000C000900B01F7800CA02F8002408F900E1
:102AB0004401F8002C08F900644180007341800053
:102AC0000300520030A8B7002C08F8002E08F900C7
:102AD0002488BF00F00260004428DE0026A8B7006A
:102AE000254180000502B2004528DE0028A8B70075
:102AF0002688BF002808E300050032002A28EF00DE
:102B0000944180006100520032A8B70005003700F0
:102B1000140020005441880094418000610242006A
:102B20009441880084A0A900A00120000C000900A5
:102B30004F1078004F0078003200F9003600F9009D
:102B40004200F900004006004200F8003600F8009C
:102B50003200F800801F7800200020000C000900DF
:102B6000B01F78000828EF000A28EF009780A8001F
:102B700001002000010078000160EF00FC0D020060
:102B8000000000008100E8002322AF00FEFF3700B4
:102B900024A2B700500020000008E600F5FF37002F
:102BA0008400A900A00120000C0009004F1078004B
:102BB0004F0078003200F9003600F9004200F900B9
:102BC000004006004200F8003600F8003200F8002D
:102BD000801F7800200020000C000900B01F780042
:102BE0000400280044408800B44B2400544088006E
:102BF0009780A80001002000010078000160EF002C
:102C0000100E0200000000008100E8002322AF0047
:102C1000FEFF370024A2B700400020000008E600B5
:102C2000F5FF3700C442A900C482A9008680A9002C
:102C3000A00120000C0009004F1078004F00780020
:102C40003200F9003600F9004200F90000400600A9
:102C5000851F78002CA3EF0005168000B0FE2F0022
:102C600085026000051688004516800000FF2F00D1
:102C700085026000451688008221EF0084E0A900EB
:102C800064002000240C88000621EF001021EF00D2
:102C900004272000640888000403280084088800B2
:102CA0008021EF008780A9001821EF002021EF008C
:102CB00084012000E4088800040228000409880038
:102CC0009780A90014002000140A88008420A9001D
:102CD0009420A80014002000340A880084A0A900D1
:102CE00094A0A8000A21EF001221EF000EA1EF002E
:102CF0000400280094088800CF0278000000060035
:102D00000F782200F07F220020A0B7000000000012
:102D100081E0A8006004200042E7B70070052000B1
:102D200042E7B70042C7A900F063200080A6B700C1
:102D3000405020008EA6B700C0F02300A4A6B70024
:102D400020012000C2A6B70000302000CCA6B700AA
:102D50006004200042E7B7007005200042E7B7009A
:102D600042C7A8004427EF0004002800041188008F
:102D700004402000141188002062A80024022000D2
:102D8000441188000828EF000A28EF000C28EF0003
:102D90000E28EF001428EF001628EF001828EF0087
:102DA0001A28EF001C28EF001E28EF003428EF003F
:102DB00004042400B44188003828EF00A44724000C
:102DC000D44188003C28EF0004F82300F441880037
:102DD0004028EF00C4282400144288002CA3EF00F0
:102DE000A48420003440880024F321005442880049
:102DF0004C28EF000028EF002428EF002628EF00E1
:102E00002828EF002A28EF002C28EF002E28EF00BA
:102E10003028EF0081E0A900040E20001402880091
:102E200081E0A8008400A9009400A8008680A90081
:102E30009680A800281602000000000081E0A9008A
:102E40004220EF0081E0A800FFFF37000020EF00E4
:042E50000040FE0040
:020000040001F9
:0807F800C7F900FF7F3F00FF7D
:00000001FF
;PIC24FJ48GA002
;CRC=32A1  CREATED="03-Nov-17 14:15"
